{"abi":[{"type":"function","name":"verifyProof","inputs":[{"name":"proof","type":"bytes","internalType":"bytes"},{"name":"publicInputs","type":"uint256[]","internalType":"uint256[]"}],"outputs":[{"name":"","type":"bool","internalType":"bool"}],"stateMutability":"pure"}],"bytecode":{"object":"0x6080604052348015600e575f5ffd5b506101e18061001c5f395ff3fe608060405234801561000f575f5ffd5b5060043610610029575f3560e01c80631e8e1e131461002d575b5f5ffd5b61004061003b3660046100e3565b610054565b604051901515815260200160405180910390f35b5f836100955760405162461bcd60e51b815260206004820152600b60248201526a22b6b83a3c90383937b7b360a91b60448201526064015b60405180910390fd5b816100d85760405162461bcd60e51b8152602060048201526013602482015272456d707479207075626c696320696e7075747360681b604482015260640161008c565b506001949350505050565b5f5f5f5f604085870312156100f6575f5ffd5b843567ffffffffffffffff81111561010c575f5ffd5b8501601f8101871361011c575f5ffd5b803567ffffffffffffffff811115610132575f5ffd5b876020828401011115610143575f5ffd5b60209182019550935085013567ffffffffffffffff811115610163575f5ffd5b8501601f81018713610173575f5ffd5b803567ffffffffffffffff811115610189575f5ffd5b8760208260051b840101111561019d575f5ffd5b94979396506020019450505056fea2646970667358221220d1752109d9923a64dd495361cf3c34a0d2694ae10cebe9a369b6c7c72f12974764736f6c634300081e0033","linkReferences":{}},"methodIdentifiers":{"verifyProof(bytes,uint256[])":"1e8e1e13"},"id":24}