{"abi":[{"type":"constructor","inputs":[{"name":"_verifier","type":"address","internalType":"address"}],"stateMutability":"nonpayable"},{"type":"function","name":"castVote","inputs":[{"name":"proof","type":"bytes","internalType":"bytes"},{"name":"nullifierCommitment","type":"uint256","internalType":"uint256"},{"name":"ipfsHash","type":"bytes32","internalType":"bytes32"},{"name":"voteOption","type":"uint256","internalType":"uint256"}],"outputs":[],"stateMutability":"nonpayable"},{"type":"function","name":"getPostVotes","inputs":[{"name":"ipfsHash","type":"bytes32","internalType":"bytes32"}],"outputs":[{"name":"upvotes","type":"uint256","internalType":"uint256"},{"name":"downvotes","type":"uint256","internalType":"uint256"}],"stateMutability":"view"},{"type":"function","name":"isMembershipVerified","inputs":[{"name":"nullifierCommitment","type":"uint256","internalType":"uint256"}],"outputs":[{"name":"","type":"bool","internalType":"bool"}],"stateMutability":"view"},{"type":"function","name":"isNullifierUsed","inputs":[{"name":"nullifierCommitment","type":"uint256","internalType":"uint256"}],"outputs":[{"name":"","type":"bool","internalType":"bool"}],"stateMutability":"view"},{"type":"function","name":"membershipVerified","inputs":[{"name":"","type":"uint256","internalType":"uint256"}],"outputs":[{"name":"","type":"bool","internalType":"bool"}],"stateMutability":"view"},{"type":"function","name":"nullifierUsed","inputs":[{"name":"","type":"uint256","internalType":"uint256"}],"outputs":[{"name":"","type":"bool","internalType":"bool"}],"stateMutability":"view"},{"type":"function","name":"postContent","inputs":[{"name":"proof","type":"bytes","internalType":"bytes"},{"name":"nullifierCommitment","type":"uint256","internalType":"uint256"},{"name":"ipfsHash","type":"bytes32","internalType":"bytes32"}],"outputs":[],"stateMutability":"nonpayable"},{"type":"function","name":"postDownvotes","inputs":[{"name":"","type":"bytes32","internalType":"bytes32"}],"outputs":[{"name":"","type":"uint256","internalType":"uint256"}],"stateMutability":"view"},{"type":"function","name":"postVotes","inputs":[{"name":"","type":"bytes32","internalType":"bytes32"}],"outputs":[{"name":"","type":"uint256","internalType":"uint256"}],"stateMutability":"view"},{"type":"function","name":"verifier","inputs":[],"outputs":[{"name":"","type":"address","internalType":"contract HonkVerifier"}],"stateMutability":"view"},{"type":"function","name":"verifyMembership","inputs":[{"name":"proof","type":"bytes","internalType":"bytes"},{"name":"nullifierCommitment","type":"uint256","internalType":"uint256"},{"name":"circleId","type":"uint256","internalType":"uint256"}],"outputs":[],"stateMutability":"nonpayable"},{"type":"event","name":"ContentPosted","inputs":[{"name":"ipfsHash","type":"bytes32","indexed":true,"internalType":"bytes32"},{"name":"nullifierCommitment","type":"uint256","indexed":false,"internalType":"uint256"},{"name":"submitter","type":"address","indexed":true,"internalType":"address"}],"anonymous":false},{"type":"event","name":"MembershipVerified","inputs":[{"name":"nullifierCommitment","type":"uint256","indexed":false,"internalType":"uint256"},{"name":"member","type":"address","indexed":true,"internalType":"address"}],"anonymous":false},{"type":"event","name":"VoteCast","inputs":[{"name":"ipfsHash","type":"bytes32","indexed":true,"internalType":"bytes32"},{"name":"voteOption","type":"uint256","indexed":false,"internalType":"uint256"},{"name":"nullifierCommitment","type":"uint256","indexed":false,"internalType":"uint256"},{"name":"voter","type":"address","indexed":true,"internalType":"address"}],"anonymous":false}],"bytecode":{"object":"0x6080604052348015600e575f5ffd5b50604051610aa9380380610aa9833981016040819052602b91604e565b5f80546001600160a01b0319166001600160a01b03929092169190911790556079565b5f60208284031215605d575f5ffd5b81516001600160a01b03811681146072575f5ffd5b9392505050565b610a23806100865f395ff3fe608060405234801561000f575f5ffd5b50600436106100a6575f3560e01c806379f95ee91161006e57806379f95ee9146101465780637dfe296d14610168578063b82b98f114610195578063c5f9555f146101d6578063c6c0572d146101f5578063f989837414610217575f5ffd5b806318a87241146100aa5780631da25f7d146100e157806323c9d895146100f65780632b7ac3f31461010957806336426c9714610133575b5f5ffd5b6100cc6100b8366004610819565b5f9081526004602052604090205460ff1690565b60405190151581526020015b60405180910390f35b6100f46100ef366004610875565b610239565b005b6100f4610104366004610875565b610417565b5f5461011b906001600160a01b031681565b6040516001600160a01b0390911681526020016100d8565b6100f46101413660046108c2565b6105cc565b6100cc610154366004610819565b60016020525f908152604090205460ff1681565b610187610176366004610819565b60036020525f908152604090205481565b6040519081526020016100d8565b6101c16101a3366004610819565b5f908152600260209081526040808320546003909252909120549091565b604080519283526020830191909152016100d8565b6101876101e4366004610819565b60026020525f908152604090205481565b6100cc610203366004610819565b5f9081526001602052604090205460ff1690565b6100cc610225366004610819565b60046020525f908152604090205460ff1681565b5f8281526004602052604090205460ff161561029c5760405162461bcd60e51b815260206004820152601b60248201527f4d656d6265727368697020616c7265616479207665726966696564000000000060448201526064015b60405180910390fd5b6040805160028082526060820183525f92602083019080368337019050509050825f1b815f815181106102d1576102d1610917565b602002602001018181525050815f1b816001815181106102f3576102f3610917565b60209081029190910101525f54604051633a94343960e21b81526001600160a01b039091169063ea50d0e4906103319088908890869060040161092b565b602060405180830381865afa15801561034c573d5f5f3e3d5ffd5b505050506040513d601f19601f8201168201806040525081019061037091906109a3565b6103bc5760405162461bcd60e51b815260206004820152601860248201527f496e76616c6964206d656d626572736869702070726f6f6600000000000000006044820152606401610293565b5f8381526004602052604090819020805460ff191660011790555133907fe35fa233ba454fd7442b0d56f855de99ed4165df20e097c79e49a65dcba33329906104089086815260200190565b60405180910390a25050505050565b5f8281526001602052604090205460ff16156104645760405162461bcd60e51b815260206004820152600c60248201526b105b1c9958591e481d5cd95960a21b6044820152606401610293565b6040805160028082526060820183525f92602083019080368337019050509050825f1b815f8151811061049957610499610917565b602090810291909101015280518290829060019081106104bb576104bb610917565b60209081029190910101525f54604051633a94343960e21b81526001600160a01b039091169063ea50d0e4906104f99088908890869060040161092b565b602060405180830381865afa158015610514573d5f5f3e3d5ffd5b505050506040513d601f19601f8201168201806040525081019061053891906109a3565b6105745760405162461bcd60e51b815260206004820152600d60248201526c24b73b30b634b210383937b7b360991b6044820152606401610293565b5f83815260016020818152604092839020805460ff19169092179091559051848152339184917f8afab892a19a30d81f86b8194d03d6024fbe93d92f300deb06bd905679e0dd3b910160405180910390a35050505050565b5f8381526001602052604090205460ff16156106195760405162461bcd60e51b815260206004820152600c60248201526b105b1c9958591e481d5cd95960a21b6044820152606401610293565b8015806106265750806001145b6106615760405162461bcd60e51b815260206004820152600c60248201526b496e76616c696420766f746560a01b6044820152606401610293565b6040805160028082526060820183525f92602083019080368337019050509050835f1b815f8151811061069657610696610917565b602002602001018181525050815f1b816001815181106106b8576106b8610917565b60209081029190910101525f54604051633a94343960e21b81526001600160a01b039091169063ea50d0e4906106f69089908990869060040161092b565b602060405180830381865afa158015610711573d5f5f3e3d5ffd5b505050506040513d601f19601f8201168201806040525081019061073591906109a3565b6107715760405162461bcd60e51b815260206004820152600d60248201526c24b73b30b634b210383937b7b360991b6044820152606401610293565b5f848152600160208190526040909120805460ff1916821790558290036107b5575f8381526002602052604081208054916107ab836109c9565b91905055506107d4565b5f8381526003602052604081208054916107ce836109c9565b91905055505b6040805183815260208101869052339185917f520c7e59d79271745893efe50157e10397aec484aa0e56188da7ada7ce8c70f6910160405180910390a3505050505050565b5f60208284031215610829575f5ffd5b5035919050565b5f5f83601f840112610840575f5ffd5b50813567ffffffffffffffff811115610857575f5ffd5b60208301915083602082850101111561086e575f5ffd5b9250929050565b5f5f5f5f60608587031215610888575f5ffd5b843567ffffffffffffffff81111561089e575f5ffd5b6108aa87828801610830565b90989097506020870135966040013595509350505050565b5f5f5f5f5f608086880312156108d6575f5ffd5b853567ffffffffffffffff8111156108ec575f5ffd5b6108f888828901610830565b9099909850602088013597604081013597506060013595509350505050565b634e487b7160e01b5f52603260045260245ffd5b60408152826040820152828460608301375f606084830101525f601f19601f85011682016060810160608483030160208501528085518083526080840191506020870193505f92505b808310156109975783518252602082019150602084019350600183019250610974565b50979650505050505050565b5f602082840312156109b3575f5ffd5b815180151581146109c2575f5ffd5b9392505050565b5f600182016109e657634e487b7160e01b5f52601160045260245ffd5b506001019056fea264697066735822122071aee707b1b9ced512b8723a60e3c75cffc6ce9eaba1475ee1d14256478e338c64736f6c634300081e0033","linkReferences":{}},"methodIdentifiers":{"castVote(bytes,uint256,bytes32,uint256)":"36426c97","getPostVotes(bytes32)":"b82b98f1","isMembershipVerified(uint256)":"18a87241","isNullifierUsed(uint256)":"c6c0572d","membershipVerified(uint256)":"f9898374","nullifierUsed(uint256)":"79f95ee9","postContent(bytes,uint256,bytes32)":"23c9d895","postDownvotes(bytes32)":"7dfe296d","postVotes(bytes32)":"c5f9555f","verifier()":"2b7ac3f3","verifyMembership(bytes,uint256,uint256)":"1da25f7d"},"id":25}