{"abi":[{"type":"constructor","inputs":[{"name":"_verifier","type":"address","internalType":"address"}],"stateMutability":"nonpayable"},{"type":"function","name":"castVote","inputs":[{"name":"proof","type":"bytes","internalType":"bytes"},{"name":"nullifierCommitment","type":"uint256","internalType":"uint256"},{"name":"ipfsHash","type":"bytes32","internalType":"bytes32"},{"name":"voteOption","type":"uint256","internalType":"uint256"}],"outputs":[],"stateMutability":"nonpayable"},{"type":"function","name":"getPostVotes","inputs":[{"name":"ipfsHash","type":"bytes32","internalType":"bytes32"}],"outputs":[{"name":"upvotes","type":"uint256","internalType":"uint256"},{"name":"downvotes","type":"uint256","internalType":"uint256"}],"stateMutability":"view"},{"type":"function","name":"isNullifierUsed","inputs":[{"name":"nullifierCommitment","type":"uint256","internalType":"uint256"}],"outputs":[{"name":"","type":"bool","internalType":"bool"}],"stateMutability":"view"},{"type":"function","name":"nullifierUsed","inputs":[{"name":"","type":"uint256","internalType":"uint256"}],"outputs":[{"name":"","type":"bool","internalType":"bool"}],"stateMutability":"view"},{"type":"function","name":"postContent","inputs":[{"name":"proof","type":"bytes","internalType":"bytes"},{"name":"nullifierCommitment","type":"uint256","internalType":"uint256"},{"name":"ipfsHash","type":"bytes32","internalType":"bytes32"}],"outputs":[],"stateMutability":"nonpayable"},{"type":"function","name":"postDownvotes","inputs":[{"name":"","type":"bytes32","internalType":"bytes32"}],"outputs":[{"name":"","type":"uint256","internalType":"uint256"}],"stateMutability":"view"},{"type":"function","name":"postVotes","inputs":[{"name":"","type":"bytes32","internalType":"bytes32"}],"outputs":[{"name":"","type":"uint256","internalType":"uint256"}],"stateMutability":"view"},{"type":"function","name":"verifier","inputs":[],"outputs":[{"name":"","type":"address","internalType":"contract IMoproVerifier"}],"stateMutability":"view"},{"type":"event","name":"ContentPosted","inputs":[{"name":"ipfsHash","type":"bytes32","indexed":true,"internalType":"bytes32"},{"name":"nullifierCommitment","type":"uint256","indexed":false,"internalType":"uint256"},{"name":"submitter","type":"address","indexed":true,"internalType":"address"}],"anonymous":false},{"type":"event","name":"VoteCast","inputs":[{"name":"ipfsHash","type":"bytes32","indexed":true,"internalType":"bytes32"},{"name":"voteOption","type":"uint256","indexed":false,"internalType":"uint256"},{"name":"nullifierCommitment","type":"uint256","indexed":false,"internalType":"uint256"},{"name":"voter","type":"address","indexed":true,"internalType":"address"}],"anonymous":false}],"bytecode":{"object":"0x608060405234801561000f575f5ffd5b50604051610feb380380610feb833981810160405281019061003191906100d4565b805f5f6101000a81548173ffffffffffffffffffffffffffffffffffffffff021916908373ffffffffffffffffffffffffffffffffffffffff160217905550506100ff565b5f5ffd5b5f73ffffffffffffffffffffffffffffffffffffffff82169050919050565b5f6100a38261007a565b9050919050565b6100b381610099565b81146100bd575f5ffd5b50565b5f815190506100ce816100aa565b92915050565b5f602082840312156100e9576100e8610076565b5b5f6100f6848285016100c0565b91505092915050565b610edf8061010c5f395ff3fe608060405234801561000f575f5ffd5b5060043610610086575f3560e01c80637dfe296d116100595780637dfe296d14610110578063b82b98f114610140578063c5f9555f14610171578063c6c0572d146101a157610086565b806323c9d8951461008a5780632b7ac3f3146100a657806336426c97146100c457806379f95ee9146100e0575b5f5ffd5b6100a4600480360381019061009f9190610896565b6101d1565b005b6100ae610418565b6040516100bb9190610981565b60405180910390f35b6100de60048036038101906100d9919061099a565b61043c565b005b6100fa60048036038101906100f59190610a1e565b61072b565b6040516101079190610a63565b60405180910390f35b61012a60048036038101906101259190610a7c565b610748565b6040516101379190610ab6565b60405180910390f35b61015a60048036038101906101559190610a7c565b61075d565b604051610168929190610acf565b60405180910390f35b61018b60048036038101906101869190610a7c565b61078c565b6040516101989190610ab6565b60405180910390f35b6101bb60048036038101906101b69190610a1e565b6107a1565b6040516101c89190610a63565b60405180910390f35b60015f8381526020019081526020015f205f9054906101000a900460ff161561022f576040517f08c379a000000000000000000000000000000000000000000000000000000000815260040161022690610b50565b60405180910390fd5b5f600267ffffffffffffffff81111561024b5761024a610b6e565b5b6040519080825280602002602001820160405280156102795781602001602082028036833780820191505090505b50905082815f815181106102905761028f610b9b565b5b602002602001018181525050815f1c816001815181106102b3576102b2610b9b565b5b6020026020010181815250505f5f9054906101000a900473ffffffffffffffffffffffffffffffffffffffff1673ffffffffffffffffffffffffffffffffffffffff16631e8e1e138686846040518463ffffffff1660e01b815260040161031c93929190610cd9565b602060405180830381865afa158015610337573d5f5f3e3d5ffd5b505050506040513d601f19601f8201168201806040525081019061035b9190610d3a565b61039a576040517f08c379a000000000000000000000000000000000000000000000000000000000815260040161039190610daf565b60405180910390fd5b6001805f8581526020019081526020015f205f6101000a81548160ff0219169083151502179055503373ffffffffffffffffffffffffffffffffffffffff16827f8afab892a19a30d81f86b8194d03d6024fbe93d92f300deb06bd905679e0dd3b856040516104099190610ab6565b60405180910390a35050505050565b5f5f9054906101000a900473ffffffffffffffffffffffffffffffffffffffff1681565b60015f8481526020019081526020015f205f9054906101000a900460ff161561049a576040517f08c379a000000000000000000000000000000000000000000000000000000000815260040161049190610b50565b60405180910390fd5b5f8114806104a85750600181145b6104e7576040517f08c379a00000000000000000000000000000000000000000000000000000000081526004016104de90610e17565b60405180910390fd5b5f600267ffffffffffffffff81111561050357610502610b6e565b5b6040519080825280602002602001820160405280156105315781602001602082028036833780820191505090505b50905083815f8151811061054857610547610b9b565b5b602002602001018181525050818160018151811061056957610568610b9b565b5b6020026020010181815250505f5f9054906101000a900473ffffffffffffffffffffffffffffffffffffffff1673ffffffffffffffffffffffffffffffffffffffff16631e8e1e138787846040518463ffffffff1660e01b81526004016105d293929190610cd9565b602060405180830381865afa1580156105ed573d5f5f3e3d5ffd5b505050506040513d601f19601f820116820180604052508101906106119190610d3a565b610650576040517f08c379a000000000000000000000000000000000000000000000000000000000815260040161064790610daf565b60405180910390fd5b6001805f8681526020019081526020015f205f6101000a81548160ff021916908315150217905550600182036106ab5760025f8481526020019081526020015f205f8154809291906106a190610e62565b91905055506106d2565b60035f8481526020019081526020015f205f8154809291906106cc90610e62565b91905055505b3373ffffffffffffffffffffffffffffffffffffffff16837f520c7e59d79271745893efe50157e10397aec484aa0e56188da7ada7ce8c70f6848760405161071b929190610acf565b60405180910390a3505050505050565b6001602052805f5260405f205f915054906101000a900460ff1681565b6003602052805f5260405f205f915090505481565b5f5f60025f8481526020019081526020015f205460035f8581526020019081526020015f205491509150915091565b6002602052805f5260405f205f915090505481565b5f60015f8381526020019081526020015f205f9054906101000a900460ff169050919050565b5f5ffd5b5f5ffd5b5f5ffd5b5f5ffd5b5f5ffd5b5f5f83601f8401126107f0576107ef6107cf565b5b8235905067ffffffffffffffff81111561080d5761080c6107d3565b5b602083019150836001820283011115610829576108286107d7565b5b9250929050565b5f819050919050565b61084281610830565b811461084c575f5ffd5b50565b5f8135905061085d81610839565b92915050565b5f819050919050565b61087581610863565b811461087f575f5ffd5b50565b5f813590506108908161086c565b92915050565b5f5f5f5f606085870312156108ae576108ad6107c7565b5b5f85013567ffffffffffffffff8111156108cb576108ca6107cb565b5b6108d7878288016107db565b945094505060206108ea8782880161084f565b92505060406108fb87828801610882565b91505092959194509250565b5f73ffffffffffffffffffffffffffffffffffffffff82169050919050565b5f819050919050565b5f61094961094461093f84610907565b610926565b610907565b9050919050565b5f61095a8261092f565b9050919050565b5f61096b82610950565b9050919050565b61097b81610961565b82525050565b5f6020820190506109945f830184610972565b92915050565b5f5f5f5f5f608086880312156109b3576109b26107c7565b5b5f86013567ffffffffffffffff8111156109d0576109cf6107cb565b5b6109dc888289016107db565b955095505060206109ef8882890161084f565b9350506040610a0088828901610882565b9250506060610a118882890161084f565b9150509295509295909350565b5f60208284031215610a3357610a326107c7565b5b5f610a408482850161084f565b91505092915050565b5f8115159050919050565b610a5d81610a49565b82525050565b5f602082019050610a765f830184610a54565b92915050565b5f60208284031215610a9157610a906107c7565b5b5f610a9e84828501610882565b91505092915050565b610ab081610830565b82525050565b5f602082019050610ac95f830184610aa7565b92915050565b5f604082019050610ae25f830185610aa7565b610aef6020830184610aa7565b9392505050565b5f82825260208201905092915050565b7f416c7265616479207573656400000000000000000000000000000000000000005f82015250565b5f610b3a600c83610af6565b9150610b4582610b06565b602082019050919050565b5f6020820190508181035f830152610b6781610b2e565b9050919050565b7f4e487b71000000000000000000000000000000000000000000000000000000005f52604160045260245ffd5b7f4e487b71000000000000000000000000000000000000000000000000000000005f52603260045260245ffd5b5f82825260208201905092915050565b828183375f83830152505050565b5f601f19601f8301169050919050565b5f610c018385610bc8565b9350610c0e838584610bd8565b610c1783610be6565b840190509392505050565b5f81519050919050565b5f82825260208201905092915050565b5f819050602082019050919050565b610c5481610830565b82525050565b5f610c658383610c4b565b60208301905092915050565b5f602082019050919050565b5f610c8782610c22565b610c918185610c2c565b9350610c9c83610c3c565b805f5b83811015610ccc578151610cb38882610c5a565b9750610cbe83610c71565b925050600181019050610c9f565b5085935050505092915050565b5f6040820190508181035f830152610cf2818587610bf6565b90508181036020830152610d068184610c7d565b9050949350505050565b610d1981610a49565b8114610d23575f5ffd5b50565b5f81519050610d3481610d10565b92915050565b5f60208284031215610d4f57610d4e6107c7565b5b5f610d5c84828501610d26565b91505092915050565b7f496e76616c69642070726f6f66000000000000000000000000000000000000005f82015250565b5f610d99600d83610af6565b9150610da482610d65565b602082019050919050565b5f6020820190508181035f830152610dc681610d8d565b9050919050565b7f496e76616c696420766f746500000000000000000000000000000000000000005f82015250565b5f610e01600c83610af6565b9150610e0c82610dcd565b602082019050919050565b5f6020820190508181035f830152610e2e81610df5565b9050919050565b7f4e487b71000000000000000000000000000000000000000000000000000000005f52601160045260245ffd5b5f610e6c82610830565b91507fffffffffffffffffffffffffffffffffffffffffffffffffffffffffffffffff8203610e9e57610e9d610e35565b5b60018201905091905056fea2646970667358221220f5b417d053d914ab233f0bc2c97d2f8e3756f95d2f7ce298188db30c38e475f064736f6c634300081e0033","linkReferences":{}},"methodIdentifiers":{"castVote(bytes,uint256,bytes32,uint256)":"36426c97","getPostVotes(bytes32)":"b82b98f1","isNullifierUsed(uint256)":"c6c0572d","nullifierUsed(uint256)":"79f95ee9","postContent(bytes,uint256,bytes32)":"23c9d895","postDownvotes(bytes32)":"7dfe296d","postVotes(bytes32)":"c5f9555f","verifier()":"2b7ac3f3"},"id":24}